{"abi":[{"inputs":[{"internalType":"uint256","name":"","type":"uint256"}],"name":"contracts","outputs":[{"internalType":"address","name":"","type":"address"}],"stateMutability":"view","type":"function"},{"inputs":[{"internalType":"address payable","name":"freelancer","type":"address"},{"internalType":"address","name":"arbiter","type":"address"}],"name":"createContract","outputs":[],"stateMutability":"nonpayable","type":"function"},{"inputs":[],"name":"getDeployedContracts","outputs":[{"internalType":"address[]","name":"","type":"address[]"}],"stateMutability":"view","type":"function"}],"devdoc":{"kind":"dev","methods":{},"version":1},"evm":{"assembly":"    /* \"Escrow.sol\":62:459  contract EscrowFactory {... */\n  mstore(0x40, 0x80)\n  callvalue\n  dup1\n  iszero\n  tag_1\n  jumpi\n  0x00\n  dup1\n  revert\ntag_1:\n  pop\n  dataSize(sub_0)\n  dup1\n  dataOffset(sub_0)\n  0x00\n  codecopy\n  0x00\n  return\nstop\n\nsub_0: assembly {\n        /* \"Escrow.sol\":62:459  contract EscrowFactory {... */\n      mstore(0x40, 0x80)\n      callvalue\n      dup1\n      iszero\n      tag_1\n      jumpi\n      0x00\n      dup1\n      revert\n    tag_1:\n      pop\n      jumpi(tag_2, lt(calldatasize, 0x04))\n      shr(0xe0, calldataload(0x00))\n      dup1\n      0x3c46c43c\n      eq\n      tag_3\n      jumpi\n      dup1\n      0x474da79a\n      eq\n      tag_4\n      jumpi\n      dup1\n      0xaa9a068f\n      eq\n      tag_5\n      jumpi\n    tag_2:\n      0x00\n      dup1\n      revert\n        /* \"Escrow.sol\":127:342  function createContract(address payable freelancer, address arbiter) public{... */\n    tag_3:\n      tag_6\n      0x04\n      dup1\n      calldatasize\n      sub\n      dup2\n      add\n      swap1\n      tag_7\n      swap2\n      swap1\n      tag_8\n      jump\t// in\n    tag_7:\n      tag_9\n      jump\t// in\n    tag_6:\n      stop\n        /* \"Escrow.sol\":92:118  address[] public contracts */\n    tag_4:\n      tag_10\n      0x04\n      dup1\n      calldatasize\n      sub\n      dup2\n      add\n      swap1\n      tag_11\n      swap2\n      swap1\n      tag_12\n      jump\t// in\n    tag_11:\n      tag_13\n      jump\t// in\n    tag_10:\n      mload(0x40)\n      tag_14\n      swap2\n      swap1\n      tag_15\n      jump\t// in\n    tag_14:\n      mload(0x40)\n      dup1\n      swap2\n      sub\n      swap1\n      return\n        /* \"Escrow.sol\":350:456  function getDeployedContracts() public view returns (address[] memory) {... */\n    tag_5:\n      tag_16\n      tag_17\n      jump\t// in\n    tag_16:\n      mload(0x40)\n      tag_18\n      swap2\n      swap1\n      tag_19\n      jump\t// in\n    tag_18:\n      mload(0x40)\n      dup1\n      swap2\n      sub\n      swap1\n      return\n        /* \"Escrow.sol\":127:342  function createContract(address payable freelancer, address arbiter) public{... */\n    tag_9:\n        /* \"Escrow.sol\":213:232  address newContract */\n      0x00\n        /* \"Escrow.sol\":262:272  msg.sender */\n      caller\n        /* \"Escrow.sol\":275:285  freelancer */\n      dup4\n        /* \"Escrow.sol\":287:294  arbiter */\n      dup4\n        /* \"Escrow.sol\":243:295  new Escrow(payable(msg.sender), freelancer, arbiter) */\n      mload(0x40)\n      tag_21\n      swap1\n      tag_22\n      jump\t// in\n    tag_21:\n      tag_23\n      swap4\n      swap3\n      swap2\n      swap1\n      tag_24\n      jump\t// in\n    tag_23:\n      mload(0x40)\n      dup1\n      swap2\n      sub\n      swap1\n      0x00\n      create\n      dup1\n      iszero\n      dup1\n      iszero\n      tag_25\n      jumpi\n      returndatasize\n      0x00\n      dup1\n      returndatacopy\n      revert(0x00, returndatasize)\n    tag_25:\n      pop\n        /* \"Escrow.sol\":213:296  address newContract = address(new Escrow(payable(msg.sender), freelancer, arbiter)) */\n      swap1\n      pop\n        /* \"Escrow.sol\":307:316  contracts */\n      0x00\n        /* \"Escrow.sol\":322:333  newContract */\n      dup2\n        /* \"Escrow.sol\":307:334  contracts.push(newContract) */\n      swap1\n      dup1\n      0x01\n      dup2\n      sload\n      add\n      dup1\n      dup3\n      sstore\n      dup1\n      swap2\n      pop\n      pop\n      0x01\n      swap1\n      sub\n      swap1\n      0x00\n      mstore\n      keccak256(0x00, 0x20)\n      add\n      0x00\n      swap1\n      swap2\n      swap1\n      swap2\n      swap1\n      swap2\n      0x0100\n      exp\n      dup2\n      sload\n      dup2\n      0xffffffffffffffffffffffffffffffffffffffff\n      mul\n      not\n      and\n      swap1\n      dup4\n      0xffffffffffffffffffffffffffffffffffffffff\n      and\n      mul\n      or\n      swap1\n      sstore\n      pop\n        /* \"Escrow.sol\":202:342  {... */\n      pop\n        /* \"Escrow.sol\":127:342  function createContract(address payable freelancer, address arbiter) public{... */\n      pop\n      pop\n      jump\t// out\n        /* \"Escrow.sol\":92:118  address[] public contracts */\n    tag_13:\n      0x00\n      dup2\n      dup2\n      sload\n      dup2\n      lt\n      tag_27\n      jumpi\n      0x00\n      dup1\n      revert\n    tag_27:\n      swap1\n      0x00\n      mstore\n      keccak256(0x00, 0x20)\n      add\n      0x00\n      swap2\n      pop\n      sload\n      swap1\n      0x0100\n      exp\n      swap1\n      div\n      0xffffffffffffffffffffffffffffffffffffffff\n      and\n      dup2\n      jump\t// out\n        /* \"Escrow.sol\":350:456  function getDeployedContracts() public view returns (address[] memory) {... */\n    tag_17:\n        /* \"Escrow.sol\":403:419  address[] memory */\n      0x60\n        /* \"Escrow.sol\":439:448  contracts */\n      0x00\n        /* \"Escrow.sol\":432:448  return contracts */\n      dup1\n      sload\n      dup1\n      0x20\n      mul\n      0x20\n      add\n      mload(0x40)\n      swap1\n      dup2\n      add\n      0x40\n      mstore\n      dup1\n      swap3\n      swap2\n      swap1\n      dup2\n      dup2\n      mstore\n      0x20\n      add\n      dup3\n      dup1\n      sload\n      dup1\n      iszero\n      tag_30\n      jumpi\n      0x20\n      mul\n      dup3\n      add\n      swap2\n      swap1\n      0x00\n      mstore\n      keccak256(0x00, 0x20)\n      swap1\n    tag_31:\n      dup2\n      0x00\n      swap1\n      sload\n      swap1\n      0x0100\n      exp\n      swap1\n      div\n      0xffffffffffffffffffffffffffffffffffffffff\n      and\n      0xffffffffffffffffffffffffffffffffffffffff\n      and\n      dup2\n      mstore\n      0x20\n      add\n      swap1\n      0x01\n      add\n      swap1\n      dup1\n      dup4\n      gt\n      tag_31\n      jumpi\n    tag_30:\n      pop\n      pop\n      pop\n      pop\n      pop\n      swap1\n      pop\n        /* \"Escrow.sol\":350:456  function getDeployedContracts() public view returns (address[] memory) {... */\n      swap1\n      jump\t// out\n    tag_22:\n      dataSize(sub_0)\n      dup1\n      dataOffset(sub_0)\n      dup4\n      codecopy\n      add\n      swap1\n      jump\t// out\n        /* \"#utility.yul\":88:205   */\n    tag_33:\n        /* \"#utility.yul\":197:198   */\n      0x00\n        /* \"#utility.yul\":194:195   */\n      dup1\n        /* \"#utility.yul\":187:199   */\n      revert\n        /* \"#utility.yul\":334:460   */\n    tag_35:\n        /* \"#utility.yul\":371:378   */\n      0x00\n        /* \"#utility.yul\":411:453   */\n      0xffffffffffffffffffffffffffffffffffffffff\n        /* \"#utility.yul\":404:409   */\n      dup3\n        /* \"#utility.yul\":400:454   */\n      and\n        /* \"#utility.yul\":389:454   */\n      swap1\n      pop\n        /* \"#utility.yul\":334:460   */\n      swap2\n      swap1\n      pop\n      jump\t// out\n        /* \"#utility.yul\":466:570   */\n    tag_36:\n        /* \"#utility.yul\":511:518   */\n      0x00\n        /* \"#utility.yul\":540:564   */\n      tag_60\n        /* \"#utility.yul\":558:563   */\n      dup3\n        /* \"#utility.yul\":540:564   */\n      tag_35\n      jump\t// in\n    tag_60:\n        /* \"#utility.yul\":529:564   */\n      swap1\n      pop\n        /* \"#utility.yul\":466:570   */\n      swap2\n      swap1\n      pop\n      jump\t// out\n        /* \"#utility.yul\":576:714   */\n    tag_37:\n        /* \"#utility.yul\":657:689   */\n      tag_62\n        /* \"#utility.yul\":683:688   */\n      dup2\n        /* \"#utility.yul\":657:689   */\n      tag_36\n      jump\t// in\n    tag_62:\n        /* \"#utility.yul\":650:655   */\n      dup2\n        /* \"#utility.yul\":647:690   */\n      eq\n        /* \"#utility.yul\":637:708   */\n      tag_63\n      jumpi\n        /* \"#utility.yul\":704:705   */\n      0x00\n        /* \"#utility.yul\":701:702   */\n      dup1\n        /* \"#utility.yul\":694:706   */\n      revert\n        /* \"#utility.yul\":637:708   */\n    tag_63:\n        /* \"#utility.yul\":576:714   */\n      pop\n      jump\t// out\n        /* \"#utility.yul\":720:875   */\n    tag_38:\n        /* \"#utility.yul\":774:779   */\n      0x00\n        /* \"#utility.yul\":812:818   */\n      dup2\n        /* \"#utility.yul\":799:819   */\n      calldataload\n        /* \"#utility.yul\":790:819   */\n      swap1\n      pop\n        /* \"#utility.yul\":828:869   */\n      tag_65\n        /* \"#utility.yul\":863:868   */\n      dup2\n        /* \"#utility.yul\":828:869   */\n      tag_37\n      jump\t// in\n    tag_65:\n        /* \"#utility.yul\":720:875   */\n      swap3\n      swap2\n      pop\n      pop\n      jump\t// out\n        /* \"#utility.yul\":881:977   */\n    tag_39:\n        /* \"#utility.yul\":918:925   */\n      0x00\n        /* \"#utility.yul\":947:971   */\n      tag_67\n        /* \"#utility.yul\":965:970   */\n      dup3\n        /* \"#utility.yul\":947:971   */\n      tag_35\n      jump\t// in\n    tag_67:\n        /* \"#utility.yul\":936:971   */\n      swap1\n      pop\n        /* \"#utility.yul\":881:977   */\n      swap2\n      swap1\n      pop\n      jump\t// out\n        /* \"#utility.yul\":983:1105   */\n    tag_40:\n        /* \"#utility.yul\":1056:1080   */\n      tag_69\n        /* \"#utility.yul\":1074:1079   */\n      dup2\n        /* \"#utility.yul\":1056:1080   */\n      tag_39\n      jump\t// in\n    tag_69:\n        /* \"#utility.yul\":1049:1054   */\n      dup2\n        /* \"#utility.yul\":1046:1081   */\n      eq\n        /* \"#utility.yul\":1036:1099   */\n      tag_70\n      jumpi\n        /* \"#utility.yul\":1095:1096   */\n      0x00\n        /* \"#utility.yul\":1092:1093   */\n      dup1\n        /* \"#utility.yul\":1085:1097   */\n      revert\n        /* \"#utility.yul\":1036:1099   */\n    tag_70:\n        /* \"#utility.yul\":983:1105   */\n      pop\n      jump\t// out\n        /* \"#utility.yul\":1111:1250   */\n    tag_41:\n        /* \"#utility.yul\":1157:1162   */\n      0x00\n        /* \"#utility.yul\":1195:1201   */\n      dup2\n        /* \"#utility.yul\":1182:1202   */\n      calldataload\n        /* \"#utility.yul\":1173:1202   */\n      swap1\n      pop\n        /* \"#utility.yul\":1211:1244   */\n      tag_72\n        /* \"#utility.yul\":1238:1243   */\n      dup2\n        /* \"#utility.yul\":1211:1244   */\n      tag_40\n      jump\t// in\n    tag_72:\n        /* \"#utility.yul\":1111:1250   */\n      swap3\n      swap2\n      pop\n      pop\n      jump\t// out\n        /* \"#utility.yul\":1256:1746   */\n    tag_8:\n        /* \"#utility.yul\":1332:1338   */\n      0x00\n        /* \"#utility.yul\":1340:1346   */\n      dup1\n        /* \"#utility.yul\":1389:1391   */\n      0x40\n        /* \"#utility.yul\":1377:1386   */\n      dup4\n        /* \"#utility.yul\":1368:1375   */\n      dup6\n        /* \"#utility.yul\":1364:1387   */\n      sub\n        /* \"#utility.yul\":1360:1392   */\n      slt\n        /* \"#utility.yul\":1357:1476   */\n      iszero\n      tag_74\n      jumpi\n        /* \"#utility.yul\":1395:1474   */\n      tag_75\n      tag_33\n      jump\t// in\n    tag_75:\n        /* \"#utility.yul\":1357:1476   */\n    tag_74:\n        /* \"#utility.yul\":1515:1516   */\n      0x00\n        /* \"#utility.yul\":1540:1601   */\n      tag_76\n        /* \"#utility.yul\":1593:1600   */\n      dup6\n        /* \"#utility.yul\":1584:1590   */\n      dup3\n        /* \"#utility.yul\":1573:1582   */\n      dup7\n        /* \"#utility.yul\":1569:1591   */\n      add\n        /* \"#utility.yul\":1540:1601   */\n      tag_38\n      jump\t// in\n    tag_76:\n        /* \"#utility.yul\":1530:1601   */\n      swap3\n      pop\n        /* \"#utility.yul\":1486:1611   */\n      pop\n        /* \"#utility.yul\":1650:1652   */\n      0x20\n        /* \"#utility.yul\":1676:1729   */\n      tag_77\n        /* \"#utility.yul\":1721:1728   */\n      dup6\n        /* \"#utility.yul\":1712:1718   */\n      dup3\n        /* \"#utility.yul\":1701:1710   */\n      dup7\n        /* \"#utility.yul\":1697:1719   */\n      add\n        /* \"#utility.yul\":1676:1729   */\n      tag_41\n      jump\t// in\n    tag_77:\n        /* \"#utility.yul\":1666:1729   */\n      swap2\n      pop\n        /* \"#utility.yul\":1621:1739   */\n      pop\n        /* \"#utility.yul\":1256:1746   */\n      swap3\n      pop\n      swap3\n      swap1\n      pop\n      jump\t// out\n        /* \"#utility.yul\":1752:1829   */\n    tag_42:\n        /* \"#utility.yul\":1789:1796   */\n      0x00\n        /* \"#utility.yul\":1818:1823   */\n      dup2\n        /* \"#utility.yul\":1807:1823   */\n      swap1\n      pop\n        /* \"#utility.yul\":1752:1829   */\n      swap2\n      swap1\n      pop\n      jump\t// out\n        /* \"#utility.yul\":1835:1957   */\n    tag_43:\n        /* \"#utility.yul\":1908:1932   */\n      tag_80\n        /* \"#utility.yul\":1926:1931   */\n      dup2\n        /* \"#utility.yul\":1908:1932   */\n      tag_42\n      jump\t// in\n    tag_80:\n        /* \"#utility.yul\":1901:1906   */\n      dup2\n        /* \"#utility.yul\":1898:1933   */\n      eq\n        /* \"#utility.yul\":1888:1951   */\n      tag_81\n      jumpi\n        /* \"#utility.yul\":1947:1948   */\n      0x00\n        /* \"#utility.yul\":1944:1945   */\n      dup1\n        /* \"#utility.yul\":1937:1949   */\n      revert\n        /* \"#utility.yul\":1888:1951   */\n    tag_81:\n        /* \"#utility.yul\":1835:1957   */\n      pop\n      jump\t// out\n        /* \"#utility.yul\":1963:2102   */\n    tag_44:\n        /* \"#utility.yul\":2009:2014   */\n      0x00\n        /* \"#utility.yul\":2047:2053   */\n      dup2\n        /* \"#utility.yul\":2034:2054   */\n      calldataload\n        /* \"#utility.yul\":2025:2054   */\n      swap1\n      pop\n        /* \"#utility.yul\":2063:2096   */\n      tag_83\n        /* \"#utility.yul\":2090:2095   */\n      dup2\n        /* \"#utility.yul\":2063:2096   */\n      tag_43\n      jump\t// in\n    tag_83:\n        /* \"#utility.yul\":1963:2102   */\n      swap3\n      swap2\n      pop\n      pop\n      jump\t// out\n        /* \"#utility.yul\":2108:2437   */\n    tag_12:\n        /* \"#utility.yul\":2167:2173   */\n      0x00\n        /* \"#utility.yul\":2216:2218   */\n      0x20\n        /* \"#utility.yul\":2204:2213   */\n      dup3\n        /* \"#utility.yul\":2195:2202   */\n      dup5\n        /* \"#utility.yul\":2191:2214   */\n      sub\n        /* \"#utility.yul\":2187:2219   */\n      slt\n        /* \"#utility.yul\":2184:2303   */\n      iszero\n      tag_85\n      jumpi\n        /* \"#utility.yul\":2222:2301   */\n      tag_86\n      tag_33\n      jump\t// in\n    tag_86:\n        /* \"#utility.yul\":2184:2303   */\n    tag_85:\n        /* \"#utility.yul\":2342:2343   */\n      0x00\n        /* \"#utility.yul\":2367:2420   */\n      tag_87\n        /* \"#utility.yul\":2412:2419   */\n      dup5\n        /* \"#utility.yul\":2403:2409   */\n      dup3\n        /* \"#utility.yul\":2392:2401   */\n      dup6\n        /* \"#utility.yul\":2388:2410   */\n      add\n        /* \"#utility.yul\":2367:2420   */\n      tag_44\n      jump\t// in\n    tag_87:\n        /* \"#utility.yul\":2357:2420   */\n      swap2\n      pop\n        /* \"#utility.yul\":2313:2430   */\n      pop\n        /* \"#utility.yul\":2108:2437   */\n      swap3\n      swap2\n      pop\n      pop\n      jump\t// out\n        /* \"#utility.yul\":2443:2561   */\n    tag_45:\n        /* \"#utility.yul\":2530:2554   */\n      tag_89\n        /* \"#utility.yul\":2548:2553   */\n      dup2\n        /* \"#utility.yul\":2530:2554   */\n      tag_39\n      jump\t// in\n    tag_89:\n        /* \"#utility.yul\":2525:2528   */\n      dup3\n        /* \"#utility.yul\":2518:2555   */\n      mstore\n        /* \"#utility.yul\":2443:2561   */\n      pop\n      pop\n      jump\t// out\n        /* \"#utility.yul\":2567:2789   */\n    tag_15:\n        /* \"#utility.yul\":2660:2664   */\n      0x00\n        /* \"#utility.yul\":2698:2700   */\n      0x20\n        /* \"#utility.yul\":2687:2696   */\n      dup3\n        /* \"#utility.yul\":2683:2701   */\n      add\n        /* \"#utility.yul\":2675:2701   */\n      swap1\n      pop\n        /* \"#utility.yul\":2711:2782   */\n      tag_91\n        /* \"#utility.yul\":2779:2780   */\n      0x00\n        /* \"#utility.yul\":2768:2777   */\n      dup4\n        /* \"#utility.yul\":2764:2781   */\n      add\n        /* \"#utility.yul\":2755:2761   */\n      dup5\n        /* \"#utility.yul\":2711:2782   */\n      tag_45\n      jump\t// in\n    tag_91:\n        /* \"#utility.yul\":2567:2789   */\n      swap3\n      swap2\n      pop\n      pop\n      jump\t// out\n        /* \"#utility.yul\":2795:2909   */\n    tag_46:\n        /* \"#utility.yul\":2862:2868   */\n      0x00\n        /* \"#utility.yul\":2896:2901   */\n      dup2\n        /* \"#utility.yul\":2890:2902   */\n      mload\n        /* \"#utility.yul\":2880:2902   */\n      swap1\n      pop\n        /* \"#utility.yul\":2795:2909   */\n      swap2\n      swap1\n      pop\n      jump\t// out\n        /* \"#utility.yul\":2915:3099   */\n    tag_47:\n        /* \"#utility.yul\":3014:3025   */\n      0x00\n        /* \"#utility.yul\":3048:3054   */\n      dup3\n        /* \"#utility.yul\":3043:3046   */\n      dup3\n        /* \"#utility.yul\":3036:3055   */\n      mstore\n        /* \"#utility.yul\":3088:3092   */\n      0x20\n        /* \"#utility.yul\":3083:3086   */\n      dup3\n        /* \"#utility.yul\":3079:3093   */\n      add\n        /* \"#utility.yul\":3064:3093   */\n      swap1\n      pop\n        /* \"#utility.yul\":2915:3099   */\n      swap3\n      swap2\n      pop\n      pop\n      jump\t// out\n        /* \"#utility.yul\":3105:3237   */\n    tag_48:\n        /* \"#utility.yul\":3172:3176   */\n      0x00\n        /* \"#utility.yul\":3195:3198   */\n      dup2\n        /* \"#utility.yul\":3187:3198   */\n      swap1\n      pop\n        /* \"#utility.yul\":3225:3229   */\n      0x20\n        /* \"#utility.yul\":3220:3223   */\n      dup3\n        /* \"#utility.yul\":3216:3230   */\n      add\n        /* \"#utility.yul\":3208:3230   */\n      swap1\n      pop\n        /* \"#utility.yul\":3105:3237   */\n      swap2\n      swap1\n      pop\n      jump\t// out\n        /* \"#utility.yul\":3243:3351   */\n    tag_49:\n        /* \"#utility.yul\":3320:3344   */\n      tag_96\n        /* \"#utility.yul\":3338:3343   */\n      dup2\n        /* \"#utility.yul\":3320:3344   */\n      tag_39\n      jump\t// in\n    tag_96:\n        /* \"#utility.yul\":3315:3318   */\n      dup3\n        /* \"#utility.yul\":3308:3345   */\n      mstore\n        /* \"#utility.yul\":3243:3351   */\n      pop\n      pop\n      jump\t// out\n        /* \"#utility.yul\":3357:3536   */\n    tag_50:\n        /* \"#utility.yul\":3426:3436   */\n      0x00\n        /* \"#utility.yul\":3447:3493   */\n      tag_98\n        /* \"#utility.yul\":3489:3492   */\n      dup4\n        /* \"#utility.yul\":3481:3487   */\n      dup4\n        /* \"#utility.yul\":3447:3493   */\n      tag_49\n      jump\t// in\n    tag_98:\n        /* \"#utility.yul\":3525:3529   */\n      0x20\n        /* \"#utility.yul\":3520:3523   */\n      dup4\n        /* \"#utility.yul\":3516:3530   */\n      add\n        /* \"#utility.yul\":3502:3530   */\n      swap1\n      pop\n        /* \"#utility.yul\":3357:3536   */\n      swap3\n      swap2\n      pop\n      pop\n      jump\t// out\n        /* \"#utility.yul\":3542:3655   */\n    tag_51:\n        /* \"#utility.yul\":3612:3616   */\n      0x00\n        /* \"#utility.yul\":3644:3648   */\n      0x20\n        /* \"#utility.yul\":3639:3642   */\n      dup3\n        /* \"#utility.yul\":3635:3649   */\n      add\n        /* \"#utility.yul\":3627:3649   */\n      swap1\n      pop\n        /* \"#utility.yul\":3542:3655   */\n      swap2\n      swap1\n      pop\n      jump\t// out\n        /* \"#utility.yul\":3691:4423   */\n    tag_52:\n        /* \"#utility.yul\":3810:3813   */\n      0x00\n        /* \"#utility.yul\":3839:3893   */\n      tag_101\n        /* \"#utility.yul\":3887:3892   */\n      dup3\n        /* \"#utility.yul\":3839:3893   */\n      tag_46\n      jump\t// in\n    tag_101:\n        /* \"#utility.yul\":3909:3995   */\n      tag_102\n        /* \"#utility.yul\":3988:3994   */\n      dup2\n        /* \"#utility.yul\":3983:3986   */\n      dup6\n        /* \"#utility.yul\":3909:3995   */\n      tag_47\n      jump\t// in\n    tag_102:\n        /* \"#utility.yul\":3902:3995   */\n      swap4\n      pop\n        /* \"#utility.yul\":4019:4075   */\n      tag_103\n        /* \"#utility.yul\":4069:4074   */\n      dup4\n        /* \"#utility.yul\":4019:4075   */\n      tag_48\n      jump\t// in\n    tag_103:\n        /* \"#utility.yul\":4098:4105   */\n      dup1\n        /* \"#utility.yul\":4129:4130   */\n      0x00\n        /* \"#utility.yul\":4114:4398   */\n    tag_104:\n        /* \"#utility.yul\":4139:4145   */\n      dup4\n        /* \"#utility.yul\":4136:4137   */\n      dup2\n        /* \"#utility.yul\":4133:4146   */\n      lt\n        /* \"#utility.yul\":4114:4398   */\n      iszero\n      tag_106\n      jumpi\n        /* \"#utility.yul\":4215:4221   */\n      dup2\n        /* \"#utility.yul\":4209:4222   */\n      mload\n        /* \"#utility.yul\":4242:4305   */\n      tag_107\n        /* \"#utility.yul\":4301:4304   */\n      dup9\n        /* \"#utility.yul\":4286:4299   */\n      dup3\n        /* \"#utility.yul\":4242:4305   */\n      tag_50\n      jump\t// in\n    tag_107:\n        /* \"#utility.yul\":4235:4305   */\n      swap8\n      pop\n        /* \"#utility.yul\":4328:4388   */\n      tag_108\n        /* \"#utility.yul\":4381:4387   */\n      dup4\n        /* \"#utility.yul\":4328:4388   */\n      tag_51\n      jump\t// in\n    tag_108:\n        /* \"#utility.yul\":4318:4388   */\n      swap3\n      pop\n        /* \"#utility.yul\":4174:4398   */\n      pop\n        /* \"#utility.yul\":4161:4162   */\n      0x01\n        /* \"#utility.yul\":4158:4159   */\n      dup2\n        /* \"#utility.yul\":4154:4163   */\n      add\n        /* \"#utility.yul\":4149:4163   */\n      swap1\n      pop\n        /* \"#utility.yul\":4114:4398   */\n      jump(tag_104)\n    tag_106:\n        /* \"#utility.yul\":4118:4132   */\n      pop\n        /* \"#utility.yul\":4414:4417   */\n      dup6\n        /* \"#utility.yul\":4407:4417   */\n      swap4\n      pop\n        /* \"#utility.yul\":3815:4423   */\n      pop\n      pop\n      pop\n        /* \"#utility.yul\":3691:4423   */\n      swap3\n      swap2\n      pop\n      pop\n      jump\t// out\n        /* \"#utility.yul\":4429:4802   */\n    tag_19:\n        /* \"#utility.yul\":4572:4576   */\n      0x00\n        /* \"#utility.yul\":4610:4612   */\n      0x20\n        /* \"#utility.yul\":4599:4608   */\n      dup3\n        /* \"#utility.yul\":4595:4613   */\n      add\n        /* \"#utility.yul\":4587:4613   */\n      swap1\n      pop\n        /* \"#utility.yul\":4659:4668   */\n      dup2\n        /* \"#utility.yul\":4653:4657   */\n      dup2\n        /* \"#utility.yul\":4649:4669   */\n      sub\n        /* \"#utility.yul\":4645:4646   */\n      0x00\n        /* \"#utility.yul\":4634:4643   */\n      dup4\n        /* \"#utility.yul\":4630:4647   */\n      add\n        /* \"#utility.yul\":4623:4670   */\n      mstore\n        /* \"#utility.yul\":4687:4795   */\n      tag_110\n        /* \"#utility.yul\":4790:4794   */\n      dup2\n        /* \"#utility.yul\":4781:4787   */\n      dup5\n        /* \"#utility.yul\":4687:4795   */\n      tag_52\n      jump\t// in\n    tag_110:\n        /* \"#utility.yul\":4679:4795   */\n      swap1\n      pop\n        /* \"#utility.yul\":4429:4802   */\n      swap3\n      swap2\n      pop\n      pop\n      jump\t// out\n        /* \"#utility.yul\":4808:4950   */\n    tag_53:\n        /* \"#utility.yul\":4911:4943   */\n      tag_112\n        /* \"#utility.yul\":4937:4942   */\n      dup2\n        /* \"#utility.yul\":4911:4943   */\n      tag_36\n      jump\t// in\n    tag_112:\n        /* \"#utility.yul\":4906:4909   */\n      dup3\n        /* \"#utility.yul\":4899:4944   */\n      mstore\n        /* \"#utility.yul\":4808:4950   */\n      pop\n      pop\n      jump\t// out\n        /* \"#utility.yul\":4956:5462   */\n    tag_24:\n        /* \"#utility.yul\":5137:5141   */\n      0x00\n        /* \"#utility.yul\":5175:5177   */\n      0x60\n        /* \"#utility.yul\":5164:5173   */\n      dup3\n        /* \"#utility.yul\":5160:5178   */\n      add\n        /* \"#utility.yul\":5152:5178   */\n      swap1\n      pop\n        /* \"#utility.yul\":5188:5275   */\n      tag_114\n        /* \"#utility.yul\":5272:5273   */\n      0x00\n        /* \"#utility.yul\":5261:5270   */\n      dup4\n        /* \"#utility.yul\":5257:5274   */\n      add\n        /* \"#utility.yul\":5248:5254   */\n      dup7\n        /* \"#utility.yul\":5188:5275   */\n      tag_53\n      jump\t// in\n    tag_114:\n        /* \"#utility.yul\":5285:5373   */\n      tag_115\n        /* \"#utility.yul\":5369:5371   */\n      0x20\n        /* \"#utility.yul\":5358:5367   */\n      dup4\n        /* \"#utility.yul\":5354:5372   */\n      add\n        /* \"#utility.yul\":5345:5351   */\n      dup6\n        /* \"#utility.yul\":5285:5373   */\n      tag_53\n      jump\t// in\n    tag_115:\n        /* \"#utility.yul\":5383:5455   */\n      tag_116\n        /* \"#utility.yul\":5451:5453   */\n      0x40\n        /* \"#utility.yul\":5440:5449   */\n      dup4\n        /* \"#utility.yul\":5436:5454   */\n      add\n        /* \"#utility.yul\":5427:5433   */\n      dup5\n        /* \"#utility.yul\":5383:5455   */\n      tag_45\n      jump\t// in\n    tag_116:\n        /* \"#utility.yul\":4956:5462   */\n      swap5\n      swap4\n      pop\n      pop\n      pop\n      pop\n      jump\t// out\n    stop\n\n    sub_0: assembly {\n            /* \"Escrow.sol\":463:1323  contract Escrow {... */\n          mstore(0x40, 0x80)\n            /* \"Escrow.sol\":589:758  constructor(address payable _client, address payable _freelancer, address _arbiter) {... */\n          callvalue\n          dup1\n          iszero\n          tag_1\n          jumpi\n          0x00\n          dup1\n          revert\n        tag_1:\n          pop\n          mload(0x40)\n          sub(codesize, bytecodeSize)\n          dup1\n          bytecodeSize\n          dup4\n          codecopy\n          dup2\n          dup2\n          add\n          0x40\n          mstore\n          dup2\n          add\n          swap1\n          tag_2\n          swap2\n          swap1\n          tag_3\n          jump\t// in\n        tag_2:\n            /* \"Escrow.sol\":689:696  _client */\n          dup3\n            /* \"Escrow.sol\":680:686  client */\n          0x00\n          dup1\n            /* \"Escrow.sol\":680:696  client = _client */\n          0x0100\n          exp\n          dup2\n          sload\n          dup2\n          0xffffffffffffffffffffffffffffffffffffffff\n          mul\n          not\n          and\n          swap1\n          dup4\n          0xffffffffffffffffffffffffffffffffffffffff\n          and\n          mul\n          or\n          swap1\n          sstore\n          pop\n            /* \"Escrow.sol\":716:727  _freelancer */\n          dup2\n            /* \"Escrow.sol\":703:713  freelancer */\n          0x01\n          0x00\n            /* \"Escrow.sol\":703:727  freelancer = _freelancer */\n          0x0100\n          exp\n          dup2\n          sload\n          dup2\n          0xffffffffffffffffffffffffffffffffffffffff\n          mul\n          not\n          and\n          swap1\n          dup4\n          0xffffffffffffffffffffffffffffffffffffffff\n          and\n          mul\n          or\n          swap1\n          sstore\n          pop\n            /* \"Escrow.sol\":744:752  _arbiter */\n          dup1\n            /* \"Escrow.sol\":734:741  arbiter */\n          0x02\n          0x00\n            /* \"Escrow.sol\":734:752  arbiter = _arbiter */\n          0x0100\n          exp\n          dup2\n          sload\n          dup2\n          0xffffffffffffffffffffffffffffffffffffffff\n          mul\n          not\n          and\n          swap1\n          dup4\n          0xffffffffffffffffffffffffffffffffffffffff\n          and\n          mul\n          or\n          swap1\n          sstore\n          pop\n            /* \"Escrow.sol\":589:758  constructor(address payable _client, address payable _freelancer, address _arbiter) {... */\n          pop\n          pop\n          pop\n            /* \"Escrow.sol\":463:1323  contract Escrow {... */\n          jump(tag_6)\n            /* \"#utility.yul\":88:205   */\n        tag_8:\n            /* \"#utility.yul\":197:198   */\n          0x00\n            /* \"#utility.yul\":194:195   */\n          dup1\n            /* \"#utility.yul\":187:199   */\n          revert\n            /* \"#utility.yul\":334:460   */\n        tag_10:\n            /* \"#utility.yul\":371:378   */\n          0x00\n            /* \"#utility.yul\":411:453   */\n          0xffffffffffffffffffffffffffffffffffffffff\n            /* \"#utility.yul\":404:409   */\n          dup3\n            /* \"#utility.yul\":400:454   */\n          and\n            /* \"#utility.yul\":389:454   */\n          swap1\n          pop\n            /* \"#utility.yul\":334:460   */\n          swap2\n          swap1\n          pop\n          jump\t// out\n            /* \"#utility.yul\":466:570   */\n        tag_11:\n            /* \"#utility.yul\":511:518   */\n          0x00\n            /* \"#utility.yul\":540:564   */\n          tag_23\n            /* \"#utility.yul\":558:563   */\n          dup3\n            /* \"#utility.yul\":540:564   */\n          tag_10\n          jump\t// in\n        tag_23:\n            /* \"#utility.yul\":529:564   */\n          swap1\n          pop\n            /* \"#utility.yul\":466:570   */\n          swap2\n          swap1\n          pop\n          jump\t// out\n            /* \"#utility.yul\":576:714   */\n        tag_12:\n            /* \"#utility.yul\":657:689   */\n          tag_25\n            /* \"#utility.yul\":683:688   */\n          dup2\n            /* \"#utility.yul\":657:689   */\n          tag_11\n          jump\t// in\n        tag_25:\n            /* \"#utility.yul\":650:655   */\n          dup2\n            /* \"#utility.yul\":647:690   */\n          eq\n            /* \"#utility.yul\":637:708   */\n          tag_26\n          jumpi\n            /* \"#utility.yul\":704:705   */\n          0x00\n            /* \"#utility.yul\":701:702   */\n          dup1\n            /* \"#utility.yul\":694:706   */\n          revert\n            /* \"#utility.yul\":637:708   */\n        tag_26:\n            /* \"#utility.yul\":576:714   */\n          pop\n          jump\t// out\n            /* \"#utility.yul\":720:879   */\n        tag_13:\n            /* \"#utility.yul\":785:790   */\n          0x00\n            /* \"#utility.yul\":816:822   */\n          dup2\n            /* \"#utility.yul\":810:823   */\n          mload\n            /* \"#utility.yul\":801:823   */\n          swap1\n          pop\n            /* \"#utility.yul\":832:873   */\n          tag_28\n            /* \"#utility.yul\":867:872   */\n          dup2\n            /* \"#utility.yul\":832:873   */\n          tag_12\n          jump\t// in\n        tag_28:\n            /* \"#utility.yul\":720:879   */\n          swap3\n          swap2\n          pop\n          pop\n          jump\t// out\n            /* \"#utility.yul\":885:981   */\n        tag_14:\n            /* \"#utility.yul\":922:929   */\n          0x00\n            /* \"#utility.yul\":951:975   */\n          tag_30\n            /* \"#utility.yul\":969:974   */\n          dup3\n            /* \"#utility.yul\":951:975   */\n          tag_10\n          jump\t// in\n        tag_30:\n            /* \"#utility.yul\":940:975   */\n          swap1\n          pop\n            /* \"#utility.yul\":885:981   */\n          swap2\n          swap1\n          pop\n          jump\t// out\n            /* \"#utility.yul\":987:1109   */\n        tag_15:\n            /* \"#utility.yul\":1060:1084   */\n          tag_32\n            /* \"#utility.yul\":1078:1083   */\n          dup2\n            /* \"#utility.yul\":1060:1084   */\n          tag_14\n          jump\t// in\n        tag_32:\n            /* \"#utility.yul\":1053:1058   */\n          dup2\n            /* \"#utility.yul\":1050:1085   */\n          eq\n            /* \"#utility.yul\":1040:1103   */\n          tag_33\n          jumpi\n            /* \"#utility.yul\":1099:1100   */\n          0x00\n            /* \"#utility.yul\":1096:1097   */\n          dup1\n            /* \"#utility.yul\":1089:1101   */\n          revert\n            /* \"#utility.yul\":1040:1103   */\n        tag_33:\n            /* \"#utility.yul\":987:1109   */\n          pop\n          jump\t// out\n            /* \"#utility.yul\":1115:1258   */\n        tag_16:\n            /* \"#utility.yul\":1172:1177   */\n          0x00\n            /* \"#utility.yul\":1203:1209   */\n          dup2\n            /* \"#utility.yul\":1197:1210   */\n          mload\n            /* \"#utility.yul\":1188:1210   */\n          swap1\n          pop\n            /* \"#utility.yul\":1219:1252   */\n          tag_35\n            /* \"#utility.yul\":1246:1251   */\n          dup2\n            /* \"#utility.yul\":1219:1252   */\n          tag_15\n          jump\t// in\n        tag_35:\n            /* \"#utility.yul\":1115:1258   */\n          swap3\n          swap2\n          pop\n          pop\n          jump\t// out\n            /* \"#utility.yul\":1264:1959   */\n        tag_3:\n            /* \"#utility.yul\":1368:1374   */\n          0x00\n            /* \"#utility.yul\":1376:1382   */\n          dup1\n            /* \"#utility.yul\":1384:1390   */\n          0x00\n            /* \"#utility.yul\":1433:1435   */\n          0x60\n            /* \"#utility.yul\":1421:1430   */\n          dup5\n            /* \"#utility.yul\":1412:1419   */\n          dup7\n            /* \"#utility.yul\":1408:1431   */\n          sub\n            /* \"#utility.yul\":1404:1436   */\n          slt\n            /* \"#utility.yul\":1401:1520   */\n          iszero\n          tag_37\n          jumpi\n            /* \"#utility.yul\":1439:1518   */\n          tag_38\n          tag_8\n          jump\t// in\n        tag_38:\n            /* \"#utility.yul\":1401:1520   */\n        tag_37:\n            /* \"#utility.yul\":1559:1560   */\n          0x00\n            /* \"#utility.yul\":1584:1656   */\n          tag_39\n            /* \"#utility.yul\":1648:1655   */\n          dup7\n            /* \"#utility.yul\":1639:1645   */\n          dup3\n            /* \"#utility.yul\":1628:1637   */\n          dup8\n            /* \"#utility.yul\":1624:1646   */\n          add\n            /* \"#utility.yul\":1584:1656   */\n          tag_13\n          jump\t// in\n        tag_39:\n            /* \"#utility.yul\":1574:1656   */\n          swap4\n          pop\n            /* \"#utility.yul\":1530:1666   */\n          pop\n            /* \"#utility.yul\":1705:1707   */\n          0x20\n            /* \"#utility.yul\":1731:1803   */\n          tag_40\n            /* \"#utility.yul\":1795:1802   */\n          dup7\n            /* \"#utility.yul\":1786:1792   */\n          dup3\n            /* \"#utility.yul\":1775:1784   */\n          dup8\n            /* \"#utility.yul\":1771:1793   */\n          add\n            /* \"#utility.yul\":1731:1803   */\n          tag_13\n          jump\t// in\n        tag_40:\n            /* \"#utility.yul\":1721:1803   */\n          swap3\n          pop\n            /* \"#utility.yul\":1676:1813   */\n          pop\n            /* \"#utility.yul\":1852:1854   */\n          0x40\n            /* \"#utility.yul\":1878:1942   */\n          tag_41\n            /* \"#utility.yul\":1934:1941   */\n          dup7\n            /* \"#utility.yul\":1925:1931   */\n          dup3\n            /* \"#utility.yul\":1914:1923   */\n          dup8\n            /* \"#utility.yul\":1910:1932   */\n          add\n            /* \"#utility.yul\":1878:1942   */\n          tag_16\n          jump\t// in\n        tag_41:\n            /* \"#utility.yul\":1868:1942   */\n          swap2\n          pop\n            /* \"#utility.yul\":1823:1952   */\n          pop\n            /* \"#utility.yul\":1264:1959   */\n          swap3\n          pop\n          swap3\n          pop\n          swap3\n          jump\t// out\n            /* \"Escrow.sol\":463:1323  contract Escrow {... */\n        tag_6:\n          dataSize(sub_0)\n          dup1\n          dataOffset(sub_0)\n          0x00\n          codecopy\n          0x00\n          return\n        stop\n\n        sub_0: assembly {\n                /* \"Escrow.sol\":463:1323  contract Escrow {... */\n              mstore(0x40, 0x80)\n              jumpi(tag_1, lt(calldatasize, 0x04))\n              shr(0xe0, calldataload(0x00))\n              dup1\n              0x109e94cf\n              eq\n              tag_3\n              jumpi\n              dup1\n              0x12065fe0\n              eq\n              tag_4\n              jumpi\n              dup1\n              0x12ddbf0e\n              eq\n              tag_5\n              jumpi\n              dup1\n              0x6ce6cfa3\n              eq\n              tag_6\n              jumpi\n              dup1\n              0xa37dda2c\n              eq\n              tag_7\n              jumpi\n              dup1\n              0xfe25e00a\n              eq\n              tag_8\n              jumpi\n              jump(tag_2)\n            tag_1:\n              jumpi(tag_2, calldatasize)\n                /* \"Escrow.sol\":843:874  Received(msg.sender, msg.value) */\n              0x88a5966d370b9919b20f3e2c13ff65706f196a4e32cc2c12bf57088f88525874\n                /* \"Escrow.sol\":852:862  msg.sender */\n              caller\n                /* \"Escrow.sol\":864:873  msg.value */\n              callvalue\n                /* \"Escrow.sol\":843:874  Received(msg.sender, msg.value) */\n              mload(0x40)\n              tag_11\n              swap3\n              swap2\n              swap1\n              tag_12\n              jump\t// in\n            tag_11:\n              mload(0x40)\n              dup1\n              swap2\n              sub\n              swap1\n              log1\n                /* \"Escrow.sol\":463:1323  contract Escrow {... */\n              stop\n            tag_2:\n              0x00\n              dup1\n              revert\n                /* \"Escrow.sol\":486:515  address payable public client */\n            tag_3:\n              callvalue\n              dup1\n              iszero\n              tag_13\n              jumpi\n              0x00\n              dup1\n              revert\n            tag_13:\n              pop\n              tag_14\n              tag_15\n              jump\t// in\n            tag_14:\n              mload(0x40)\n              tag_16\n              swap2\n              swap1\n              tag_17\n              jump\t// in\n            tag_16:\n              mload(0x40)\n              dup1\n              swap2\n              sub\n              swap1\n              return\n                /* \"Escrow.sol\":1216:1320  function getBalance(... */\n            tag_4:\n              callvalue\n              dup1\n              iszero\n              tag_18\n              jumpi\n              0x00\n              dup1\n              revert\n            tag_18:\n              pop\n              tag_19\n              tag_20\n              jump\t// in\n            tag_19:\n              mload(0x40)\n              tag_21\n              swap2\n              swap1\n              tag_22\n              jump\t// in\n            tag_21:\n              mload(0x40)\n              dup1\n              swap2\n              sub\n              swap1\n              return\n                /* \"Escrow.sol\":1054:1208  function refundToClient() public {... */\n            tag_5:\n              callvalue\n              dup1\n              iszero\n              tag_23\n              jumpi\n              0x00\n              dup1\n              revert\n            tag_23:\n              pop\n              tag_24\n              tag_25\n              jump\t// in\n            tag_24:\n              stop\n                /* \"Escrow.sol\":888:1046  function payoutToFreelancer() public {... */\n            tag_6:\n              callvalue\n              dup1\n              iszero\n              tag_26\n              jumpi\n              0x00\n              dup1\n              revert\n            tag_26:\n              pop\n              tag_27\n              tag_28\n              jump\t// in\n            tag_27:\n              stop\n                /* \"Escrow.sol\":520:553  address payable public freelancer */\n            tag_7:\n              callvalue\n              dup1\n              iszero\n              tag_29\n              jumpi\n              0x00\n              dup1\n              revert\n            tag_29:\n              pop\n              tag_30\n              tag_31\n              jump\t// in\n            tag_30:\n              mload(0x40)\n              tag_32\n              swap2\n              swap1\n              tag_17\n              jump\t// in\n            tag_32:\n              mload(0x40)\n              dup1\n              swap2\n              sub\n              swap1\n              return\n                /* \"Escrow.sol\":558:580  address public arbiter */\n            tag_8:\n              callvalue\n              dup1\n              iszero\n              tag_33\n              jumpi\n              0x00\n              dup1\n              revert\n            tag_33:\n              pop\n              tag_34\n              tag_35\n              jump\t// in\n            tag_34:\n              mload(0x40)\n              tag_36\n              swap2\n              swap1\n              tag_37\n              jump\t// in\n            tag_36:\n              mload(0x40)\n              dup1\n              swap2\n              sub\n              swap1\n              return\n                /* \"Escrow.sol\":486:515  address payable public client */\n            tag_15:\n              0x00\n              dup1\n              sload\n              swap1\n              0x0100\n              exp\n              swap1\n              div\n              0xffffffffffffffffffffffffffffffffffffffff\n              and\n              dup2\n              jump\t// out\n                /* \"Escrow.sol\":1216:1320  function getBalance(... */\n            tag_20:\n                /* \"Escrow.sol\":1264:1271  uint256 */\n              0x00\n                /* \"Escrow.sol\":1291:1312  address(this).balance */\n              selfbalance\n                /* \"Escrow.sol\":1284:1312  return address(this).balance */\n              swap1\n              pop\n                /* \"Escrow.sol\":1216:1320  function getBalance(... */\n              swap1\n              jump\t// out\n                /* \"Escrow.sol\":1054:1208  function refundToClient() public {... */\n            tag_25:\n                /* \"Escrow.sol\":1111:1121  freelancer */\n              0x01\n              0x00\n              swap1\n              sload\n              swap1\n              0x0100\n              exp\n              swap1\n              div\n              0xffffffffffffffffffffffffffffffffffffffff\n              and\n                /* \"Escrow.sol\":1097:1121  msg.sender == freelancer */\n              0xffffffffffffffffffffffffffffffffffffffff\n              and\n                /* \"Escrow.sol\":1097:1107  msg.sender */\n              caller\n                /* \"Escrow.sol\":1097:1121  msg.sender == freelancer */\n              0xffffffffffffffffffffffffffffffffffffffff\n              and\n              eq\n                /* \"Escrow.sol\":1097:1146  msg.sender == freelancer || msg.sender == arbiter */\n              dup1\n              tag_40\n              jumpi\n              pop\n                /* \"Escrow.sol\":1139:1146  arbiter */\n              0x02\n              0x00\n              swap1\n              sload\n              swap1\n              0x0100\n              exp\n              swap1\n              div\n              0xffffffffffffffffffffffffffffffffffffffff\n              and\n                /* \"Escrow.sol\":1125:1146  msg.sender == arbiter */\n              0xffffffffffffffffffffffffffffffffffffffff\n              and\n                /* \"Escrow.sol\":1125:1135  msg.sender */\n              caller\n                /* \"Escrow.sol\":1125:1146  msg.sender == arbiter */\n              0xffffffffffffffffffffffffffffffffffffffff\n              and\n              eq\n                /* \"Escrow.sol\":1097:1146  msg.sender == freelancer || msg.sender == arbiter */\n            tag_40:\n                /* \"Escrow.sol\":1094:1203  if(msg.sender == freelancer || msg.sender == arbiter) {... */\n              iszero\n              tag_41\n              jumpi\n                /* \"Escrow.sol\":1157:1163  client */\n              0x00\n              dup1\n              sload\n              swap1\n              0x0100\n              exp\n              swap1\n              div\n              0xffffffffffffffffffffffffffffffffffffffff\n              and\n                /* \"Escrow.sol\":1157:1172  client.transfer */\n              0xffffffffffffffffffffffffffffffffffffffff\n              and\n                /* \"Escrow.sol\":1157:1195  client.transfer(address(this).balance) */\n              0x08fc\n                /* \"Escrow.sol\":1173:1194  address(this).balance */\n              selfbalance\n                /* \"Escrow.sol\":1157:1195  client.transfer(address(this).balance) */\n              swap1\n              dup2\n              iszero\n              mul\n              swap1\n              mload(0x40)\n              0x00\n              mload(0x40)\n              dup1\n              dup4\n              sub\n              dup2\n              dup6\n              dup9\n              dup9\n              call\n              swap4\n              pop\n              pop\n              pop\n              pop\n              iszero\n              dup1\n              iszero\n              tag_43\n              jumpi\n              returndatasize\n              0x00\n              dup1\n              returndatacopy\n              revert(0x00, returndatasize)\n            tag_43:\n              pop\n                /* \"Escrow.sol\":1094:1203  if(msg.sender == freelancer || msg.sender == arbiter) {... */\n            tag_41:\n                /* \"Escrow.sol\":1054:1208  function refundToClient() public {... */\n              jump\t// out\n                /* \"Escrow.sol\":888:1046  function payoutToFreelancer() public {... */\n            tag_28:\n                /* \"Escrow.sol\":949:955  client */\n              0x00\n              dup1\n              sload\n              swap1\n              0x0100\n              exp\n              swap1\n              div\n              0xffffffffffffffffffffffffffffffffffffffff\n              and\n                /* \"Escrow.sol\":935:955  msg.sender == client */\n              0xffffffffffffffffffffffffffffffffffffffff\n              and\n                /* \"Escrow.sol\":935:945  msg.sender */\n              caller\n                /* \"Escrow.sol\":935:955  msg.sender == client */\n              0xffffffffffffffffffffffffffffffffffffffff\n              and\n              eq\n                /* \"Escrow.sol\":935:980  msg.sender == client || msg.sender == arbiter */\n              dup1\n              tag_45\n              jumpi\n              pop\n                /* \"Escrow.sol\":973:980  arbiter */\n              0x02\n              0x00\n              swap1\n              sload\n              swap1\n              0x0100\n              exp\n              swap1\n              div\n              0xffffffffffffffffffffffffffffffffffffffff\n              and\n                /* \"Escrow.sol\":959:980  msg.sender == arbiter */\n              0xffffffffffffffffffffffffffffffffffffffff\n              and\n                /* \"Escrow.sol\":959:969  msg.sender */\n              caller\n                /* \"Escrow.sol\":959:980  msg.sender == arbiter */\n              0xffffffffffffffffffffffffffffffffffffffff\n              and\n              eq\n                /* \"Escrow.sol\":935:980  msg.sender == client || msg.sender == arbiter */\n            tag_45:\n                /* \"Escrow.sol\":932:1041  if(msg.sender == client || msg.sender == arbiter) {... */\n              iszero\n              tag_46\n              jumpi\n                /* \"Escrow.sol\":991:1001  freelancer */\n              0x01\n              0x00\n              swap1\n              sload\n              swap1\n              0x0100\n              exp\n              swap1\n              div\n              0xffffffffffffffffffffffffffffffffffffffff\n              and\n                /* \"Escrow.sol\":991:1010  freelancer.transfer */\n              0xffffffffffffffffffffffffffffffffffffffff\n              and\n                /* \"Escrow.sol\":991:1033  freelancer.transfer(address(this).balance) */\n              0x08fc\n                /* \"Escrow.sol\":1011:1032  address(this).balance */\n              selfbalance\n                /* \"Escrow.sol\":991:1033  freelancer.transfer(address(this).balance) */\n              swap1\n              dup2\n              iszero\n              mul\n              swap1\n              mload(0x40)\n              0x00\n              mload(0x40)\n              dup1\n              dup4\n              sub\n              dup2\n              dup6\n              dup9\n              dup9\n              call\n              swap4\n              pop\n              pop\n              pop\n              pop\n              iszero\n              dup1\n              iszero\n              tag_48\n              jumpi\n              returndatasize\n              0x00\n              dup1\n              returndatacopy\n              revert(0x00, returndatasize)\n            tag_48:\n              pop\n                /* \"Escrow.sol\":932:1041  if(msg.sender == client || msg.sender == arbiter) {... */\n            tag_46:\n                /* \"Escrow.sol\":888:1046  function payoutToFreelancer() public {... */\n              jump\t// out\n                /* \"Escrow.sol\":520:553  address payable public freelancer */\n            tag_31:\n              0x01\n              0x00\n              swap1\n              sload\n              swap1\n              0x0100\n              exp\n              swap1\n              div\n              0xffffffffffffffffffffffffffffffffffffffff\n              and\n              dup2\n              jump\t// out\n                /* \"Escrow.sol\":558:580  address public arbiter */\n            tag_35:\n              0x02\n              0x00\n              swap1\n              sload\n              swap1\n              0x0100\n              exp\n              swap1\n              div\n              0xffffffffffffffffffffffffffffffffffffffff\n              and\n              dup2\n              jump\t// out\n                /* \"#utility.yul\":7:133   */\n            tag_49:\n                /* \"#utility.yul\":44:51   */\n              0x00\n                /* \"#utility.yul\":84:126   */\n              0xffffffffffffffffffffffffffffffffffffffff\n                /* \"#utility.yul\":77:82   */\n              dup3\n                /* \"#utility.yul\":73:127   */\n              and\n                /* \"#utility.yul\":62:127   */\n              swap1\n              pop\n                /* \"#utility.yul\":7:133   */\n              swap2\n              swap1\n              pop\n              jump\t// out\n                /* \"#utility.yul\":139:235   */\n            tag_50:\n                /* \"#utility.yul\":176:183   */\n              0x00\n                /* \"#utility.yul\":205:229   */\n              tag_59\n                /* \"#utility.yul\":223:228   */\n              dup3\n                /* \"#utility.yul\":205:229   */\n              tag_49\n              jump\t// in\n            tag_59:\n                /* \"#utility.yul\":194:229   */\n              swap1\n              pop\n                /* \"#utility.yul\":139:235   */\n              swap2\n              swap1\n              pop\n              jump\t// out\n                /* \"#utility.yul\":241:359   */\n            tag_51:\n                /* \"#utility.yul\":328:352   */\n              tag_61\n                /* \"#utility.yul\":346:351   */\n              dup2\n                /* \"#utility.yul\":328:352   */\n              tag_50\n              jump\t// in\n            tag_61:\n                /* \"#utility.yul\":323:326   */\n              dup3\n                /* \"#utility.yul\":316:353   */\n              mstore\n                /* \"#utility.yul\":241:359   */\n              pop\n              pop\n              jump\t// out\n                /* \"#utility.yul\":365:442   */\n            tag_52:\n                /* \"#utility.yul\":402:409   */\n              0x00\n                /* \"#utility.yul\":431:436   */\n              dup2\n                /* \"#utility.yul\":420:436   */\n              swap1\n              pop\n                /* \"#utility.yul\":365:442   */\n              swap2\n              swap1\n              pop\n              jump\t// out\n                /* \"#utility.yul\":448:566   */\n            tag_53:\n                /* \"#utility.yul\":535:559   */\n              tag_64\n                /* \"#utility.yul\":553:558   */\n              dup2\n                /* \"#utility.yul\":535:559   */\n              tag_52\n              jump\t// in\n            tag_64:\n                /* \"#utility.yul\":530:533   */\n              dup3\n                /* \"#utility.yul\":523:560   */\n              mstore\n                /* \"#utility.yul\":448:566   */\n              pop\n              pop\n              jump\t// out\n                /* \"#utility.yul\":572:904   */\n            tag_12:\n                /* \"#utility.yul\":693:697   */\n              0x00\n                /* \"#utility.yul\":731:733   */\n              0x40\n                /* \"#utility.yul\":720:729   */\n              dup3\n                /* \"#utility.yul\":716:734   */\n              add\n                /* \"#utility.yul\":708:734   */\n              swap1\n              pop\n                /* \"#utility.yul\":744:815   */\n              tag_66\n                /* \"#utility.yul\":812:813   */\n              0x00\n                /* \"#utility.yul\":801:810   */\n              dup4\n                /* \"#utility.yul\":797:814   */\n              add\n                /* \"#utility.yul\":788:794   */\n              dup6\n                /* \"#utility.yul\":744:815   */\n              tag_51\n              jump\t// in\n            tag_66:\n                /* \"#utility.yul\":825:897   */\n              tag_67\n                /* \"#utility.yul\":893:895   */\n              0x20\n                /* \"#utility.yul\":882:891   */\n              dup4\n                /* \"#utility.yul\":878:896   */\n              add\n                /* \"#utility.yul\":869:875   */\n              dup5\n                /* \"#utility.yul\":825:897   */\n              tag_53\n              jump\t// in\n            tag_67:\n                /* \"#utility.yul\":572:904   */\n              swap4\n              swap3\n              pop\n              pop\n              pop\n              jump\t// out\n                /* \"#utility.yul\":910:1014   */\n            tag_54:\n                /* \"#utility.yul\":955:962   */\n              0x00\n                /* \"#utility.yul\":984:1008   */\n              tag_69\n                /* \"#utility.yul\":1002:1007   */\n              dup3\n                /* \"#utility.yul\":984:1008   */\n              tag_49\n              jump\t// in\n            tag_69:\n                /* \"#utility.yul\":973:1008   */\n              swap1\n              pop\n                /* \"#utility.yul\":910:1014   */\n              swap2\n              swap1\n              pop\n              jump\t// out\n                /* \"#utility.yul\":1020:1162   */\n            tag_55:\n                /* \"#utility.yul\":1123:1155   */\n              tag_71\n                /* \"#utility.yul\":1149:1154   */\n              dup2\n                /* \"#utility.yul\":1123:1155   */\n              tag_54\n              jump\t// in\n            tag_71:\n                /* \"#utility.yul\":1118:1121   */\n              dup3\n                /* \"#utility.yul\":1111:1156   */\n              mstore\n                /* \"#utility.yul\":1020:1162   */\n              pop\n              pop\n              jump\t// out\n                /* \"#utility.yul\":1168:1422   */\n            tag_17:\n                /* \"#utility.yul\":1277:1281   */\n              0x00\n                /* \"#utility.yul\":1315:1317   */\n              0x20\n                /* \"#utility.yul\":1304:1313   */\n              dup3\n                /* \"#utility.yul\":1300:1318   */\n              add\n                /* \"#utility.yul\":1292:1318   */\n              swap1\n              pop\n                /* \"#utility.yul\":1328:1415   */\n              tag_73\n                /* \"#utility.yul\":1412:1413   */\n              0x00\n                /* \"#utility.yul\":1401:1410   */\n              dup4\n                /* \"#utility.yul\":1397:1414   */\n              add\n                /* \"#utility.yul\":1388:1394   */\n              dup5\n                /* \"#utility.yul\":1328:1415   */\n              tag_55\n              jump\t// in\n            tag_73:\n                /* \"#utility.yul\":1168:1422   */\n              swap3\n              swap2\n              pop\n              pop\n              jump\t// out\n                /* \"#utility.yul\":1428:1650   */\n            tag_22:\n                /* \"#utility.yul\":1521:1525   */\n              0x00\n                /* \"#utility.yul\":1559:1561   */\n              0x20\n                /* \"#utility.yul\":1548:1557   */\n              dup3\n                /* \"#utility.yul\":1544:1562   */\n              add\n                /* \"#utility.yul\":1536:1562   */\n              swap1\n              pop\n                /* \"#utility.yul\":1572:1643   */\n              tag_75\n                /* \"#utility.yul\":1640:1641   */\n              0x00\n                /* \"#utility.yul\":1629:1638   */\n              dup4\n                /* \"#utility.yul\":1625:1642   */\n              add\n                /* \"#utility.yul\":1616:1622   */\n              dup5\n                /* \"#utility.yul\":1572:1643   */\n              tag_53\n              jump\t// in\n            tag_75:\n                /* \"#utility.yul\":1428:1650   */\n              swap3\n              swap2\n              pop\n              pop\n              jump\t// out\n                /* \"#utility.yul\":1656:1878   */\n            tag_37:\n                /* \"#utility.yul\":1749:1753   */\n              0x00\n                /* \"#utility.yul\":1787:1789   */\n              0x20\n                /* \"#utility.yul\":1776:1785   */\n              dup3\n                /* \"#utility.yul\":1772:1790   */\n              add\n                /* \"#utility.yul\":1764:1790   */\n              swap1\n              pop\n                /* \"#utility.yul\":1800:1871   */\n              tag_77\n                /* \"#utility.yul\":1868:1869   */\n              0x00\n                /* \"#utility.yul\":1857:1866   */\n              dup4\n                /* \"#utility.yul\":1853:1870   */\n              add\n                /* \"#utility.yul\":1844:1850   */\n              dup5\n                /* \"#utility.yul\":1800:1871   */\n              tag_51\n              jump\t// in\n            tag_77:\n                /* \"#utility.yul\":1656:1878   */\n              swap3\n              swap2\n              pop\n              pop\n              jump\t// out\n\n            auxdata: 0xa2646970667358221220cddec37910912a188e147c7755259d4fa66d13bb4581004c7672d9230b2e23b164736f6c634300080e0033\n        }\n    }\n\n    auxdata: 0xa26469706673582212205842da3e2b0cf63e1d27706cf185d71fc81e979ac60396c383701c3f26af3e9164736f6c634300080e0033\n}\n","bytecode":{"linkReferences":{},"object":"608060405234801561001057600080fd5b50610c42806100206000396000f3fe608060405234801561001057600080fd5b50600436106100415760003560e01c80633c46c43c14610046578063474da79a14610062578063aa9a068f14610092575b600080fd5b610060600480360381019061005b91906102cf565b6100b0565b005b61007c60048036038101906100779190610345565b610154565b6040516100899190610381565b60405180910390f35b61009a610193565b6040516100a7919061045a565b60405180910390f35b60003383836040516100c190610221565b6100cd9392919061048b565b604051809103906000f0801580156100e9573d6000803e3d6000fd5b5090506000819080600181540180825580915050600190039060005260206000200160009091909190916101000a81548173ffffffffffffffffffffffffffffffffffffffff021916908373ffffffffffffffffffffffffffffffffffffffff160217905550505050565b6000818154811061016457600080fd5b906000526020600020016000915054906101000a900473ffffffffffffffffffffffffffffffffffffffff1681565b6060600080548060200260200160405190810160405280929190818152602001828054801561021757602002820191906000526020600020905b8160009054906101000a900473ffffffffffffffffffffffffffffffffffffffff1673ffffffffffffffffffffffffffffffffffffffff16815260200190600101908083116101cd575b5050505050905090565b61074a806104c383390190565b600080fd5b600073ffffffffffffffffffffffffffffffffffffffff82169050919050565b600061025e82610233565b9050919050565b61026e81610253565b811461027957600080fd5b50565b60008135905061028b81610265565b92915050565b600061029c82610233565b9050919050565b6102ac81610291565b81146102b757600080fd5b50565b6000813590506102c9816102a3565b92915050565b600080604083850312156102e6576102e561022e565b5b60006102f48582860161027c565b9250506020610305858286016102ba565b9150509250929050565b6000819050919050565b6103228161030f565b811461032d57600080fd5b50565b60008135905061033f81610319565b92915050565b60006020828403121561035b5761035a61022e565b5b600061036984828501610330565b91505092915050565b61037b81610291565b82525050565b60006020820190506103966000830184610372565b92915050565b600081519050919050565b600082825260208201905092915050565b6000819050602082019050919050565b6103d181610291565b82525050565b60006103e383836103c8565b60208301905092915050565b6000602082019050919050565b60006104078261039c565b61041181856103a7565b935061041c836103b8565b8060005b8381101561044d57815161043488826103d7565b975061043f836103ef565b925050600181019050610420565b5085935050505092915050565b6000602082019050818103600083015261047481846103fc565b905092915050565b61048581610253565b82525050565b60006060820190506104a0600083018661047c565b6104ad602083018561047c565b6104ba6040830184610372565b94935050505056fe608060405234801561001057600080fd5b5060405161074a38038061074a8339818101604052810190610032919061019d565b826000806101000a81548173ffffffffffffffffffffffffffffffffffffffff021916908373ffffffffffffffffffffffffffffffffffffffff16021790555081600160006101000a81548173ffffffffffffffffffffffffffffffffffffffff021916908373ffffffffffffffffffffffffffffffffffffffff16021790555080600260006101000a81548173ffffffffffffffffffffffffffffffffffffffff021916908373ffffffffffffffffffffffffffffffffffffffff1602179055505050506101f0565b600080fd5b600073ffffffffffffffffffffffffffffffffffffffff82169050919050565b600061012c82610101565b9050919050565b61013c81610121565b811461014757600080fd5b50565b60008151905061015981610133565b92915050565b600061016a82610101565b9050919050565b61017a8161015f565b811461018557600080fd5b50565b60008151905061019781610171565b92915050565b6000806000606084860312156101b6576101b56100fc565b5b60006101c48682870161014a565b93505060206101d58682870161014a565b92505060406101e686828701610188565b9150509250925092565b61054b806101ff6000396000f3fe6080604052600436106100595760003560e01c8063109e94cf1461009e57806312065fe0146100c957806312ddbf0e146100f45780636ce6cfa31461010b578063a37dda2c14610122578063fe25e00a1461014d57610099565b36610099577f88a5966d370b9919b20f3e2c13ff65706f196a4e32cc2c12bf57088f88525874333460405161008f92919061047a565b60405180910390a1005b600080fd5b3480156100aa57600080fd5b506100b3610178565b6040516100c091906104c4565b60405180910390f35b3480156100d557600080fd5b506100de61019c565b6040516100eb91906104df565b60405180910390f35b34801561010057600080fd5b506101096101a4565b005b34801561011757600080fd5b506101206102bc565b005b34801561012e57600080fd5b506101376103d4565b60405161014491906104c4565b60405180910390f35b34801561015957600080fd5b506101626103fa565b60405161016f91906104fa565b60405180910390f35b60008054906101000a900473ffffffffffffffffffffffffffffffffffffffff1681565b600047905090565b600160009054906101000a900473ffffffffffffffffffffffffffffffffffffffff1673ffffffffffffffffffffffffffffffffffffffff163373ffffffffffffffffffffffffffffffffffffffff16148061024d5750600260009054906101000a900473ffffffffffffffffffffffffffffffffffffffff1673ffffffffffffffffffffffffffffffffffffffff163373ffffffffffffffffffffffffffffffffffffffff16145b156102ba5760008054906101000a900473ffffffffffffffffffffffffffffffffffffffff1673ffffffffffffffffffffffffffffffffffffffff166108fc479081150290604051600060405180830381858888f193505050501580156102b8573d6000803e3d6000fd5b505b565b60008054906101000a900473ffffffffffffffffffffffffffffffffffffffff1673ffffffffffffffffffffffffffffffffffffffff163373ffffffffffffffffffffffffffffffffffffffff1614806103635750600260009054906101000a900473ffffffffffffffffffffffffffffffffffffffff1673ffffffffffffffffffffffffffffffffffffffff163373ffffffffffffffffffffffffffffffffffffffff16145b156103d257600160009054906101000a900473ffffffffffffffffffffffffffffffffffffffff1673ffffffffffffffffffffffffffffffffffffffff166108fc479081150290604051600060405180830381858888f193505050501580156103d0573d6000803e3d6000fd5b505b565b600160009054906101000a900473ffffffffffffffffffffffffffffffffffffffff1681565b600260009054906101000a900473ffffffffffffffffffffffffffffffffffffffff1681565b600073ffffffffffffffffffffffffffffffffffffffff82169050919050565b600061044b82610420565b9050919050565b61045b81610440565b82525050565b6000819050919050565b61047481610461565b82525050565b600060408201905061048f6000830185610452565b61049c602083018461046b565b9392505050565b60006104ae82610420565b9050919050565b6104be816104a3565b82525050565b60006020820190506104d960008301846104b5565b92915050565b60006020820190506104f4600083018461046b565b92915050565b600060208201905061050f6000830184610452565b9291505056fea2646970667358221220cddec37910912a188e147c7755259d4fa66d13bb4581004c7672d9230b2e23b164736f6c634300080e0033a26469706673582212205842da3e2b0cf63e1d27706cf185d71fc81e979ac60396c383701c3f26af3e9164736f6c634300080e0033","opcodes":"PUSH1 0x80 PUSH1 0x40 MSTORE CALLVALUE DUP1 ISZERO PUSH2 0x10 JUMPI PUSH1 0x0 DUP1 REVERT JUMPDEST POP PUSH2 0xC42 DUP1 PUSH2 0x20 PUSH1 0x0 CODECOPY PUSH1 0x0 RETURN INVALID PUSH1 0x80 PUSH1 0x40 MSTORE CALLVALUE DUP1 ISZERO PUSH2 0x10 JUMPI PUSH1 0x0 DUP1 REVERT JUMPDEST POP PUSH1 0x4 CALLDATASIZE LT PUSH2 0x41 JUMPI PUSH1 0x0 CALLDATALOAD PUSH1 0xE0 SHR DUP1 PUSH4 0x3C46C43C EQ PUSH2 0x46 JUMPI DUP1 PUSH4 0x474DA79A EQ PUSH2 0x62 JUMPI DUP1 PUSH4 0xAA9A068F EQ PUSH2 0x92 JUMPI JUMPDEST PUSH1 0x0 DUP1 REVERT JUMPDEST PUSH2 0x60 PUSH1 0x4 DUP1 CALLDATASIZE SUB DUP2 ADD SWAP1 PUSH2 0x5B SWAP2 SWAP1 PUSH2 0x2CF JUMP JUMPDEST PUSH2 0xB0 JUMP JUMPDEST STOP JUMPDEST PUSH2 0x7C PUSH1 0x4 DUP1 CALLDATASIZE SUB DUP2 ADD SWAP1 PUSH2 0x77 SWAP2 SWAP1 PUSH2 0x345 JUMP JUMPDEST PUSH2 0x154 JUMP JUMPDEST PUSH1 0x40 MLOAD PUSH2 0x89 SWAP2 SWAP1 PUSH2 0x381 JUMP JUMPDEST PUSH1 0x40 MLOAD DUP1 SWAP2 SUB SWAP1 RETURN JUMPDEST PUSH2 0x9A PUSH2 0x193 JUMP JUMPDEST PUSH1 0x40 MLOAD PUSH2 0xA7 SWAP2 SWAP1 PUSH2 0x45A JUMP JUMPDEST PUSH1 0x40 MLOAD DUP1 SWAP2 SUB SWAP1 RETURN JUMPDEST PUSH1 0x0 CALLER DUP4 DUP4 PUSH1 0x40 MLOAD PUSH2 0xC1 SWAP1 PUSH2 0x221 JUMP JUMPDEST PUSH2 0xCD SWAP4 SWAP3 SWAP2 SWAP1 PUSH2 0x48B JUMP JUMPDEST PUSH1 0x40 MLOAD DUP1 SWAP2 SUB SWAP1 PUSH1 0x0 CREATE DUP1 ISZERO DUP1 ISZERO PUSH2 0xE9 JUMPI RETURNDATASIZE PUSH1 0x0 DUP1 RETURNDATACOPY RETURNDATASIZE PUSH1 0x0 REVERT JUMPDEST POP SWAP1 POP PUSH1 0x0 DUP2 SWAP1 DUP1 PUSH1 0x1 DUP2 SLOAD ADD DUP1 DUP3 SSTORE DUP1 SWAP2 POP POP PUSH1 0x1 SWAP1 SUB SWAP1 PUSH1 0x0 MSTORE PUSH1 0x20 PUSH1 0x0 KECCAK256 ADD PUSH1 0x0 SWAP1 SWAP2 SWAP1 SWAP2 SWAP1 SWAP2 PUSH2 0x100 EXP DUP2 SLOAD DUP2 PUSH20 0xFFFFFFFFFFFFFFFFFFFFFFFFFFFFFFFFFFFFFFFF MUL NOT AND SWAP1 DUP4 PUSH20 0xFFFFFFFFFFFFFFFFFFFFFFFFFFFFFFFFFFFFFFFF AND MUL OR SWAP1 SSTORE POP POP POP POP JUMP JUMPDEST PUSH1 0x0 DUP2 DUP2 SLOAD DUP2 LT PUSH2 0x164 JUMPI PUSH1 0x0 DUP1 REVERT JUMPDEST SWAP1 PUSH1 0x0 MSTORE PUSH1 0x20 PUSH1 0x0 KECCAK256 ADD PUSH1 0x0 SWAP2 POP SLOAD SWAP1 PUSH2 0x100 EXP SWAP1 DIV PUSH20 0xFFFFFFFFFFFFFFFFFFFFFFFFFFFFFFFFFFFFFFFF AND DUP2 JUMP JUMPDEST PUSH1 0x60 PUSH1 0x0 DUP1 SLOAD DUP1 PUSH1 0x20 MUL PUSH1 0x20 ADD PUSH1 0x40 MLOAD SWAP1 DUP2 ADD PUSH1 0x40 MSTORE DUP1 SWAP3 SWAP2 SWAP1 DUP2 DUP2 MSTORE PUSH1 0x20 ADD DUP3 DUP1 SLOAD DUP1 ISZERO PUSH2 0x217 JUMPI PUSH1 0x20 MUL DUP3 ADD SWAP2 SWAP1 PUSH1 0x0 MSTORE PUSH1 0x20 PUSH1 0x0 KECCAK256 SWAP1 JUMPDEST DUP2 PUSH1 0x0 SWAP1 SLOAD SWAP1 PUSH2 0x100 EXP SWAP1 DIV PUSH20 0xFFFFFFFFFFFFFFFFFFFFFFFFFFFFFFFFFFFFFFFF AND PUSH20 0xFFFFFFFFFFFFFFFFFFFFFFFFFFFFFFFFFFFFFFFF AND DUP2 MSTORE PUSH1 0x20 ADD SWAP1 PUSH1 0x1 ADD SWAP1 DUP1 DUP4 GT PUSH2 0x1CD JUMPI JUMPDEST POP POP POP POP POP SWAP1 POP SWAP1 JUMP JUMPDEST PUSH2 0x74A DUP1 PUSH2 0x4C3 DUP4 CODECOPY ADD SWAP1 JUMP JUMPDEST PUSH1 0x0 DUP1 REVERT JUMPDEST PUSH1 0x0 PUSH20 0xFFFFFFFFFFFFFFFFFFFFFFFFFFFFFFFFFFFFFFFF DUP3 AND SWAP1 POP SWAP2 SWAP1 POP JUMP JUMPDEST PUSH1 0x0 PUSH2 0x25E DUP3 PUSH2 0x233 JUMP JUMPDEST SWAP1 POP SWAP2 SWAP1 POP JUMP JUMPDEST PUSH2 0x26E DUP2 PUSH2 0x253 JUMP JUMPDEST DUP2 EQ PUSH2 0x279 JUMPI PUSH1 0x0 DUP1 REVERT JUMPDEST POP JUMP JUMPDEST PUSH1 0x0 DUP2 CALLDATALOAD SWAP1 POP PUSH2 0x28B DUP2 PUSH2 0x265 JUMP JUMPDEST SWAP3 SWAP2 POP POP JUMP JUMPDEST PUSH1 0x0 PUSH2 0x29C DUP3 PUSH2 0x233 JUMP JUMPDEST SWAP1 POP SWAP2 SWAP1 POP JUMP JUMPDEST PUSH2 0x2AC DUP2 PUSH2 0x291 JUMP JUMPDEST DUP2 EQ PUSH2 0x2B7 JUMPI PUSH1 0x0 DUP1 REVERT JUMPDEST POP JUMP JUMPDEST PUSH1 0x0 DUP2 CALLDATALOAD SWAP1 POP PUSH2 0x2C9 DUP2 PUSH2 0x2A3 JUMP JUMPDEST SWAP3 SWAP2 POP POP JUMP JUMPDEST PUSH1 0x0 DUP1 PUSH1 0x40 DUP4 DUP6 SUB SLT ISZERO PUSH2 0x2E6 JUMPI PUSH2 0x2E5 PUSH2 0x22E JUMP JUMPDEST JUMPDEST PUSH1 0x0 PUSH2 0x2F4 DUP6 DUP3 DUP7 ADD PUSH2 0x27C JUMP JUMPDEST SWAP3 POP POP PUSH1 0x20 PUSH2 0x305 DUP6 DUP3 DUP7 ADD PUSH2 0x2BA JUMP JUMPDEST SWAP2 POP POP SWAP3 POP SWAP3 SWAP1 POP JUMP JUMPDEST PUSH1 0x0 DUP2 SWAP1 POP SWAP2 SWAP1 POP JUMP JUMPDEST PUSH2 0x322 DUP2 PUSH2 0x30F JUMP JUMPDEST DUP2 EQ PUSH2 0x32D JUMPI PUSH1 0x0 DUP1 REVERT JUMPDEST POP JUMP JUMPDEST PUSH1 0x0 DUP2 CALLDATALOAD SWAP1 POP PUSH2 0x33F DUP2 PUSH2 0x319 JUMP JUMPDEST SWAP3 SWAP2 POP POP JUMP JUMPDEST PUSH1 0x0 PUSH1 0x20 DUP3 DUP5 SUB SLT ISZERO PUSH2 0x35B JUMPI PUSH2 0x35A PUSH2 0x22E JUMP JUMPDEST JUMPDEST PUSH1 0x0 PUSH2 0x369 DUP5 DUP3 DUP6 ADD PUSH2 0x330 JUMP JUMPDEST SWAP2 POP POP SWAP3 SWAP2 POP POP JUMP JUMPDEST PUSH2 0x37B DUP2 PUSH2 0x291 JUMP JUMPDEST DUP3 MSTORE POP POP JUMP JUMPDEST PUSH1 0x0 PUSH1 0x20 DUP3 ADD SWAP1 POP PUSH2 0x396 PUSH1 0x0 DUP4 ADD DUP5 PUSH2 0x372 JUMP JUMPDEST SWAP3 SWAP2 POP POP JUMP JUMPDEST PUSH1 0x0 DUP2 MLOAD SWAP1 POP SWAP2 SWAP1 POP JUMP JUMPDEST PUSH1 0x0 DUP3 DUP3 MSTORE PUSH1 0x20 DUP3 ADD SWAP1 POP SWAP3 SWAP2 POP POP JUMP JUMPDEST PUSH1 0x0 DUP2 SWAP1 POP PUSH1 0x20 DUP3 ADD SWAP1 POP SWAP2 SWAP1 POP JUMP JUMPDEST PUSH2 0x3D1 DUP2 PUSH2 0x291 JUMP JUMPDEST DUP3 MSTORE POP POP JUMP JUMPDEST PUSH1 0x0 PUSH2 0x3E3 DUP4 DUP4 PUSH2 0x3C8 JUMP JUMPDEST PUSH1 0x20 DUP4 ADD SWAP1 POP SWAP3 SWAP2 POP POP JUMP JUMPDEST PUSH1 0x0 PUSH1 0x20 DUP3 ADD SWAP1 POP SWAP2 SWAP1 POP JUMP JUMPDEST PUSH1 0x0 PUSH2 0x407 DUP3 PUSH2 0x39C JUMP JUMPDEST PUSH2 0x411 DUP2 DUP6 PUSH2 0x3A7 JUMP JUMPDEST SWAP4 POP PUSH2 0x41C DUP4 PUSH2 0x3B8 JUMP JUMPDEST DUP1 PUSH1 0x0 JUMPDEST DUP4 DUP2 LT ISZERO PUSH2 0x44D JUMPI DUP2 MLOAD PUSH2 0x434 DUP9 DUP3 PUSH2 0x3D7 JUMP JUMPDEST SWAP8 POP PUSH2 0x43F DUP4 PUSH2 0x3EF JUMP JUMPDEST SWAP3 POP POP PUSH1 0x1 DUP2 ADD SWAP1 POP PUSH2 0x420 JUMP JUMPDEST POP DUP6 SWAP4 POP POP POP POP SWAP3 SWAP2 POP POP JUMP JUMPDEST PUSH1 0x0 PUSH1 0x20 DUP3 ADD SWAP1 POP DUP2 DUP2 SUB PUSH1 0x0 DUP4 ADD MSTORE PUSH2 0x474 DUP2 DUP5 PUSH2 0x3FC JUMP JUMPDEST SWAP1 POP SWAP3 SWAP2 POP POP JUMP JUMPDEST PUSH2 0x485 DUP2 PUSH2 0x253 JUMP JUMPDEST DUP3 MSTORE POP POP JUMP JUMPDEST PUSH1 0x0 PUSH1 0x60 DUP3 ADD SWAP1 POP PUSH2 0x4A0 PUSH1 0x0 DUP4 ADD DUP7 PUSH2 0x47C JUMP JUMPDEST PUSH2 0x4AD PUSH1 0x20 DUP4 ADD DUP6 PUSH2 0x47C JUMP JUMPDEST PUSH2 0x4BA PUSH1 0x40 DUP4 ADD DUP5 PUSH2 0x372 JUMP JUMPDEST SWAP5 SWAP4 POP POP POP POP JUMP INVALID PUSH1 0x80 PUSH1 0x40 MSTORE CALLVALUE DUP1 ISZERO PUSH2 0x10 JUMPI PUSH1 0x0 DUP1 REVERT JUMPDEST POP PUSH1 0x40 MLOAD PUSH2 0x74A CODESIZE SUB DUP1 PUSH2 0x74A DUP4 CODECOPY DUP2 DUP2 ADD PUSH1 0x40 MSTORE DUP2 ADD SWAP1 PUSH2 0x32 SWAP2 SWAP1 PUSH2 0x19D JUMP JUMPDEST DUP3 PUSH1 0x0 DUP1 PUSH2 0x100 EXP DUP2 SLOAD DUP2 PUSH20 0xFFFFFFFFFFFFFFFFFFFFFFFFFFFFFFFFFFFFFFFF MUL NOT AND SWAP1 DUP4 PUSH20 0xFFFFFFFFFFFFFFFFFFFFFFFFFFFFFFFFFFFFFFFF AND MUL OR SWAP1 SSTORE POP DUP2 PUSH1 0x1 PUSH1 0x0 PUSH2 0x100 EXP DUP2 SLOAD DUP2 PUSH20 0xFFFFFFFFFFFFFFFFFFFFFFFFFFFFFFFFFFFFFFFF MUL NOT AND SWAP1 DUP4 PUSH20 0xFFFFFFFFFFFFFFFFFFFFFFFFFFFFFFFFFFFFFFFF AND MUL OR SWAP1 SSTORE POP DUP1 PUSH1 0x2 PUSH1 0x0 PUSH2 0x100 EXP DUP2 SLOAD DUP2 PUSH20 0xFFFFFFFFFFFFFFFFFFFFFFFFFFFFFFFFFFFFFFFF MUL NOT AND SWAP1 DUP4 PUSH20 0xFFFFFFFFFFFFFFFFFFFFFFFFFFFFFFFFFFFFFFFF AND MUL OR SWAP1 SSTORE POP POP POP POP PUSH2 0x1F0 JUMP JUMPDEST PUSH1 0x0 DUP1 REVERT JUMPDEST PUSH1 0x0 PUSH20 0xFFFFFFFFFFFFFFFFFFFFFFFFFFFFFFFFFFFFFFFF DUP3 AND SWAP1 POP SWAP2 SWAP1 POP JUMP JUMPDEST PUSH1 0x0 PUSH2 0x12C DUP3 PUSH2 0x101 JUMP JUMPDEST SWAP1 POP SWAP2 SWAP1 POP JUMP JUMPDEST PUSH2 0x13C DUP2 PUSH2 0x121 JUMP JUMPDEST DUP2 EQ PUSH2 0x147 JUMPI PUSH1 0x0 DUP1 REVERT JUMPDEST POP JUMP JUMPDEST PUSH1 0x0 DUP2 MLOAD SWAP1 POP PUSH2 0x159 DUP2 PUSH2 0x133 JUMP JUMPDEST SWAP3 SWAP2 POP POP JUMP JUMPDEST PUSH1 0x0 PUSH2 0x16A DUP3 PUSH2 0x101 JUMP JUMPDEST SWAP1 POP SWAP2 SWAP1 POP JUMP JUMPDEST PUSH2 0x17A DUP2 PUSH2 0x15F JUMP JUMPDEST DUP2 EQ PUSH2 0x185 JUMPI PUSH1 0x0 DUP1 REVERT JUMPDEST POP JUMP JUMPDEST PUSH1 0x0 DUP2 MLOAD SWAP1 POP PUSH2 0x197 DUP2 PUSH2 0x171 JUMP JUMPDEST SWAP3 SWAP2 POP POP JUMP JUMPDEST PUSH1 0x0 DUP1 PUSH1 0x0 PUSH1 0x60 DUP5 DUP7 SUB SLT ISZERO PUSH2 0x1B6 JUMPI PUSH2 0x1B5 PUSH2 0xFC JUMP JUMPDEST JUMPDEST PUSH1 0x0 PUSH2 0x1C4 DUP7 DUP3 DUP8 ADD PUSH2 0x14A JUMP JUMPDEST SWAP4 POP POP PUSH1 0x20 PUSH2 0x1D5 DUP7 DUP3 DUP8 ADD PUSH2 0x14A JUMP JUMPDEST SWAP3 POP POP PUSH1 0x40 PUSH2 0x1E6 DUP7 DUP3 DUP8 ADD PUSH2 0x188 JUMP JUMPDEST SWAP2 POP POP SWAP3 POP SWAP3 POP SWAP3 JUMP JUMPDEST PUSH2 0x54B DUP1 PUSH2 0x1FF PUSH1 0x0 CODECOPY PUSH1 0x0 RETURN INVALID PUSH1 0x80 PUSH1 0x40 MSTORE PUSH1 0x4 CALLDATASIZE LT PUSH2 0x59 JUMPI PUSH1 0x0 CALLDATALOAD PUSH1 0xE0 SHR DUP1 PUSH4 0x109E94CF EQ PUSH2 0x9E JUMPI DUP1 PUSH4 0x12065FE0 EQ PUSH2 0xC9 JUMPI DUP1 PUSH4 0x12DDBF0E EQ PUSH2 0xF4 JUMPI DUP1 PUSH4 0x6CE6CFA3 EQ PUSH2 0x10B JUMPI DUP1 PUSH4 0xA37DDA2C EQ PUSH2 0x122 JUMPI DUP1 PUSH4 0xFE25E00A EQ PUSH2 0x14D JUMPI PUSH2 0x99 JUMP JUMPDEST CALLDATASIZE PUSH2 0x99 JUMPI PUSH32 0x88A5966D370B9919B20F3E2C13FF65706F196A4E32CC2C12BF57088F88525874 CALLER CALLVALUE PUSH1 0x40 MLOAD PUSH2 0x8F SWAP3 SWAP2 SWAP1 PUSH2 0x47A JUMP JUMPDEST PUSH1 0x40 MLOAD DUP1 SWAP2 SUB SWAP1 LOG1 STOP JUMPDEST PUSH1 0x0 DUP1 REVERT JUMPDEST CALLVALUE DUP1 ISZERO PUSH2 0xAA JUMPI PUSH1 0x0 DUP1 REVERT JUMPDEST POP PUSH2 0xB3 PUSH2 0x178 JUMP JUMPDEST PUSH1 0x40 MLOAD PUSH2 0xC0 SWAP2 SWAP1 PUSH2 0x4C4 JUMP JUMPDEST PUSH1 0x40 MLOAD DUP1 SWAP2 SUB SWAP1 RETURN JUMPDEST CALLVALUE DUP1 ISZERO PUSH2 0xD5 JUMPI PUSH1 0x0 DUP1 REVERT JUMPDEST POP PUSH2 0xDE PUSH2 0x19C JUMP JUMPDEST PUSH1 0x40 MLOAD PUSH2 0xEB SWAP2 SWAP1 PUSH2 0x4DF JUMP JUMPDEST PUSH1 0x40 MLOAD DUP1 SWAP2 SUB SWAP1 RETURN JUMPDEST CALLVALUE DUP1 ISZERO PUSH2 0x100 JUMPI PUSH1 0x0 DUP1 REVERT JUMPDEST POP PUSH2 0x109 PUSH2 0x1A4 JUMP JUMPDEST STOP JUMPDEST CALLVALUE DUP1 ISZERO PUSH2 0x117 JUMPI PUSH1 0x0 DUP1 REVERT JUMPDEST POP PUSH2 0x120 PUSH2 0x2BC JUMP JUMPDEST STOP JUMPDEST CALLVALUE DUP1 ISZERO PUSH2 0x12E JUMPI PUSH1 0x0 DUP1 REVERT JUMPDEST POP PUSH2 0x137 PUSH2 0x3D4 JUMP JUMPDEST PUSH1 0x40 MLOAD PUSH2 0x144 SWAP2 SWAP1 PUSH2 0x4C4 JUMP JUMPDEST PUSH1 0x40 MLOAD DUP1 SWAP2 SUB SWAP1 RETURN JUMPDEST CALLVALUE DUP1 ISZERO PUSH2 0x159 JUMPI PUSH1 0x0 DUP1 REVERT JUMPDEST POP PUSH2 0x162 PUSH2 0x3FA JUMP JUMPDEST PUSH1 0x40 MLOAD PUSH2 0x16F SWAP2 SWAP1 PUSH2 0x4FA JUMP JUMPDEST PUSH1 0x40 MLOAD DUP1 SWAP2 SUB SWAP1 RETURN JUMPDEST PUSH1 0x0 DUP1 SLOAD SWAP1 PUSH2 0x100 EXP SWAP1 DIV PUSH20 0xFFFFFFFFFFFFFFFFFFFFFFFFFFFFFFFFFFFFFFFF AND DUP2 JUMP JUMPDEST PUSH1 0x0 SELFBALANCE SWAP1 POP SWAP1 JUMP JUMPDEST PUSH1 0x1 PUSH1 0x0 SWAP1 SLOAD SWAP1 PUSH2 0x100 EXP SWAP1 DIV PUSH20 0xFFFFFFFFFFFFFFFFFFFFFFFFFFFFFFFFFFFFFFFF AND PUSH20 0xFFFFFFFFFFFFFFFFFFFFFFFFFFFFFFFFFFFFFFFF AND CALLER PUSH20 0xFFFFFFFFFFFFFFFFFFFFFFFFFFFFFFFFFFFFFFFF AND EQ DUP1 PUSH2 0x24D JUMPI POP PUSH1 0x2 PUSH1 0x0 SWAP1 SLOAD SWAP1 PUSH2 0x100 EXP SWAP1 DIV PUSH20 0xFFFFFFFFFFFFFFFFFFFFFFFFFFFFFFFFFFFFFFFF AND PUSH20 0xFFFFFFFFFFFFFFFFFFFFFFFFFFFFFFFFFFFFFFFF AND CALLER PUSH20 0xFFFFFFFFFFFFFFFFFFFFFFFFFFFFFFFFFFFFFFFF AND EQ JUMPDEST ISZERO PUSH2 0x2BA JUMPI PUSH1 0x0 DUP1 SLOAD SWAP1 PUSH2 0x100 EXP SWAP1 DIV PUSH20 0xFFFFFFFFFFFFFFFFFFFFFFFFFFFFFFFFFFFFFFFF AND PUSH20 0xFFFFFFFFFFFFFFFFFFFFFFFFFFFFFFFFFFFFFFFF AND PUSH2 0x8FC SELFBALANCE SWAP1 DUP2 ISZERO MUL SWAP1 PUSH1 0x40 MLOAD PUSH1 0x0 PUSH1 0x40 MLOAD DUP1 DUP4 SUB DUP2 DUP6 DUP9 DUP9 CALL SWAP4 POP POP POP POP ISZERO DUP1 ISZERO PUSH2 0x2B8 JUMPI RETURNDATASIZE PUSH1 0x0 DUP1 RETURNDATACOPY RETURNDATASIZE PUSH1 0x0 REVERT JUMPDEST POP JUMPDEST JUMP JUMPDEST PUSH1 0x0 DUP1 SLOAD SWAP1 PUSH2 0x100 EXP SWAP1 DIV PUSH20 0xFFFFFFFFFFFFFFFFFFFFFFFFFFFFFFFFFFFFFFFF AND PUSH20 0xFFFFFFFFFFFFFFFFFFFFFFFFFFFFFFFFFFFFFFFF AND CALLER PUSH20 0xFFFFFFFFFFFFFFFFFFFFFFFFFFFFFFFFFFFFFFFF AND EQ DUP1 PUSH2 0x363 JUMPI POP PUSH1 0x2 PUSH1 0x0 SWAP1 SLOAD SWAP1 PUSH2 0x100 EXP SWAP1 DIV PUSH20 0xFFFFFFFFFFFFFFFFFFFFFFFFFFFFFFFFFFFFFFFF AND PUSH20 0xFFFFFFFFFFFFFFFFFFFFFFFFFFFFFFFFFFFFFFFF AND CALLER PUSH20 0xFFFFFFFFFFFFFFFFFFFFFFFFFFFFFFFFFFFFFFFF AND EQ JUMPDEST ISZERO PUSH2 0x3D2 JUMPI PUSH1 0x1 PUSH1 0x0 SWAP1 SLOAD SWAP1 PUSH2 0x100 EXP SWAP1 DIV PUSH20 0xFFFFFFFFFFFFFFFFFFFFFFFFFFFFFFFFFFFFFFFF AND PUSH20 0xFFFFFFFFFFFFFFFFFFFFFFFFFFFFFFFFFFFFFFFF AND PUSH2 0x8FC SELFBALANCE SWAP1 DUP2 ISZERO MUL SWAP1 PUSH1 0x40 MLOAD PUSH1 0x0 PUSH1 0x40 MLOAD DUP1 DUP4 SUB DUP2 DUP6 DUP9 DUP9 CALL SWAP4 POP POP POP POP ISZERO DUP1 ISZERO PUSH2 0x3D0 JUMPI RETURNDATASIZE PUSH1 0x0 DUP1 RETURNDATACOPY RETURNDATASIZE PUSH1 0x0 REVERT JUMPDEST POP JUMPDEST JUMP JUMPDEST PUSH1 0x1 PUSH1 0x0 SWAP1 SLOAD SWAP1 PUSH2 0x100 EXP SWAP1 DIV PUSH20 0xFFFFFFFFFFFFFFFFFFFFFFFFFFFFFFFFFFFFFFFF AND DUP2 JUMP JUMPDEST PUSH1 0x2 PUSH1 0x0 SWAP1 SLOAD SWAP1 PUSH2 0x100 EXP SWAP1 DIV PUSH20 0xFFFFFFFFFFFFFFFFFFFFFFFFFFFFFFFFFFFFFFFF AND DUP2 JUMP JUMPDEST PUSH1 0x0 PUSH20 0xFFFFFFFFFFFFFFFFFFFFFFFFFFFFFFFFFFFFFFFF DUP3 AND SWAP1 POP SWAP2 SWAP1 POP JUMP JUMPDEST PUSH1 0x0 PUSH2 0x44B DUP3 PUSH2 0x420 JUMP JUMPDEST SWAP1 POP SWAP2 SWAP1 POP JUMP JUMPDEST PUSH2 0x45B DUP2 PUSH2 0x440 JUMP JUMPDEST DUP3 MSTORE POP POP JUMP JUMPDEST PUSH1 0x0 DUP2 SWAP1 POP SWAP2 SWAP1 POP JUMP JUMPDEST PUSH2 0x474 DUP2 PUSH2 0x461 JUMP JUMPDEST DUP3 MSTORE POP POP JUMP JUMPDEST PUSH1 0x0 PUSH1 0x40 DUP3 ADD SWAP1 POP PUSH2 0x48F PUSH1 0x0 DUP4 ADD DUP6 PUSH2 0x452 JUMP JUMPDEST PUSH2 0x49C PUSH1 0x20 DUP4 ADD DUP5 PUSH2 0x46B JUMP JUMPDEST SWAP4 SWAP3 POP POP POP JUMP JUMPDEST PUSH1 0x0 PUSH2 0x4AE DUP3 PUSH2 0x420 JUMP JUMPDEST SWAP1 POP SWAP2 SWAP1 POP JUMP JUMPDEST PUSH2 0x4BE DUP2 PUSH2 0x4A3 JUMP JUMPDEST DUP3 MSTORE POP POP JUMP JUMPDEST PUSH1 0x0 PUSH1 0x20 DUP3 ADD SWAP1 POP PUSH2 0x4D9 PUSH1 0x0 DUP4 ADD DUP5 PUSH2 0x4B5 JUMP JUMPDEST SWAP3 SWAP2 POP POP JUMP JUMPDEST PUSH1 0x0 PUSH1 0x20 DUP3 ADD SWAP1 POP PUSH2 0x4F4 PUSH1 0x0 DUP4 ADD DUP5 PUSH2 0x46B JUMP JUMPDEST SWAP3 SWAP2 POP POP JUMP JUMPDEST PUSH1 0x0 PUSH1 0x20 DUP3 ADD SWAP1 POP PUSH2 0x50F PUSH1 0x0 DUP4 ADD DUP5 PUSH2 0x452 JUMP JUMPDEST SWAP3 SWAP2 POP POP JUMP INVALID LOG2 PUSH5 0x6970667358 0x22 SLT KECCAK256 0xCD 0xDE 0xC3 PUSH26 0x10912A188E147C7755259D4FA66D13BB4581004C7672D9230B2E 0x23 0xB1 PUSH5 0x736F6C6343 STOP ADDMOD 0xE STOP CALLER LOG2 PUSH5 0x6970667358 0x22 SLT KECCAK256 PC TIMESTAMP 0xDA RETURNDATACOPY 0x2B 0xC 0xF6 RETURNDATACOPY SAR 0x27 PUSH17 0x6CF185D71FC81E979AC60396C383701C3F 0x26 0xAF RETURNDATACOPY SWAP2 PUSH5 0x736F6C6343 STOP ADDMOD 0xE STOP CALLER "},"gasEstimates":{"creation":{"codeDepositCost":"627600","executionCost":"664","totalCost":"628264"},"external":{"contracts(uint256)":"4956","createContract(address,address)":"infinite","getDeployedContracts()":"infinite"}},"methodIdentifiers":{"contracts(uint256)":"474da79a","createContract(address,address)":"3c46c43c","getDeployedContracts()":"aa9a068f"}},"storageLayout":{"storage":[{"astId":4,"contract":"Escrow.sol:EscrowFactory","label":"contracts","offset":0,"slot":"0","type":"t_array(t_address)dyn_storage"}],"types":{"t_address":{"encoding":"inplace","label":"address","numberOfBytes":"20"},"t_array(t_address)dyn_storage":{"base":"t_address","encoding":"dynamic_array","label":"address[]","numberOfBytes":"32"}}},"userdoc":{"kind":"user","methods":{},"version":1}}